:0D076900706469757362202578200D0A0008
:10070B0012075712077612072612000E8E258F2618
:0B071B007BFF7A0779691204AE80FEB4
:06079A000418000000003D
:07000300758ACD758CF8220F
:0C077600438901D28CD2A9D2AF0200034B
:03000B000206EDFD
:1006ED00C0E0C0F0C083C082C0D075D00812000336
:0E06FD0012061AD0D0D082D083D0F0D0E032D6
:100757007590FF7E007F087D007B007A007910028C
:0207670003E6A7
:10061A00E590F4F510E51065116007E4F512851010
:10062A0011220512D3E512940A748094804017E4CB
:10063A00F512851113E516F455134214E513F45512
:07064A00165215851316225C
:0607B700E513F4F5A02299
:100741002564002578003031323334353637383975
:060751004142434445460D
:0307A000011C0039
:1007260053890F438920758BF4758DF4D28E759895
:0B07360050438780D29CD2ACD2AF228F
:030023000207824F
:0C078200309803C29832C299751C0032F6
:0A07A4008F99751C01E51C70FC2202
:10065100E4FD7546FF7547077548418E498F4AFB92
:100661007A007937120082E4FD74372DF8E6FF60D5
:07067100061207A40D80F240
:01067800225F
:10067900E4FD7546FF7547077548448E498F4AFB67
:100689007A007937120082E4FD74372DF8E6FF60AD
:07069900061207A40D80F218
:0106A0002237
:1006C8008B378A388939AB37AA38A939120382603F
:1006D800130539E5397002053814F9120382FF123F
:0506E80007A480E222DE
:0604AE008B228A23892441
:1004B400753400753500753625AB22AA23A924129C
:1004C4000382700302058464256003020569042520
:1004D40024F524E43523F523FAA924120382249D68
:1004E400605E24FA600C24F6603E24FB601F241432
:1004F4007063AB34E536F92402F536E535FA340099
:10050400F53512039BFFAEF01206518065AB34E55E
:1005140036F92402F536E535FA3400F53512039B35
:10052400FFAEF0120679804AAB34E536F92403F5C0
:1005340036E535FA3400F5351203C61206C88032A2
:10054400AB34E536F92402F536E535FA3400F535F1
:1005540012039B80197F251207A4AB22AA23A92486
:100564001203828009AB22AA23A924120382FF1258
:1005740007A474012524F524E43523F5230204BDDE
:0905840075340075350075360070
:01058D00224B
:0C078E00D2B5C2B68F80D2B67580FF22B3
:0807AE00C2B5C2B7AF80D2B79B
:0107B6002220
:10000E007FFD12078E1207AEAD077C001207AEEF12
:03001E00FEAF052D
:0100210022BC
:0300000002058E68
:0C058E00787FE4F6D8FD7581560205D593
:10038200BB010689828A83E0225002E722BBFE0279
:09039200E32289828A83E49322AC
:10039B00BB010A89828A83E0F5F0A3E0225006872D
:1003AB00F009E71922BBFE07E3F5F009E3192289EF
:0B03BB00828A83E493F5F07401932222
:1003C600BB010789828A8302046A5005E9F80204A0
:1003D60051BBFE05E9F802047389828A8302047C14
:10002600E5522446F8E60552227843300702784620
:10003600E475F00112045A0203822000EB7F2ED2EF
:10004600008018EF540F2490D43440D4FF30040BB2
:10005600EF24BFB41A0050032461FFE55360021574
:10006600530556E5567002055530070D7843E4757D
:10007600F00112045AEF02043F0206A17403D207EC
:100086008003E4C207F5528B438A448945E4F5535D
:10009600F555F556E55360077F2012006180F5752A
:1000A60054FFC201C200C202C203C205C206C20890
:1000B60012002FFF700D3007057F00120072AF5639
:1000C600AE5522B4255FC2D5C20412002FFF24D03C
:1000D600B40A00501A75F00A785330D50508B6FFF1
:1000E6000106C6A426F620D5047002D20380D924C0
:1000F600CFB41A00EF5004C2E5D204020272D20154
:1001060080C6D20080C0D20280BCD2D580BAD205C9
:1001160080B47F201200612002077401B5530040AD
:10012600F1120026FF12006102009AD208D2068060
:1001360095120026FB120026FA120026F94A4B7089
:100146000679437A037BFF20022EE553602A7E0060
:100156008E8275830012041260060EEE655470F0EE
:10016600C2D5EBC0E0EAC0E0E9C0E0EE1202B9D0C9
:10017600E0F9D0E0FAD0E0FB120382FF60AAEBC000
:10018600E0EAC0E0E9C0E0120061D0E02401F9D065
:10019600E03400FAD0E0FBE5540460DCD554D980A5
:1001A600877BFF7A0279B5D202809C79108002792A
:1001B60008C206C2088008D2D5790A8004790AC224
:1001C600D5E554047002F554E4FAFDFEFF1200264C
:1001D600FC7B08200113120026FD7B1030000A125A
:1001E6000026FE120026FF7B20EC3382D592D550E6
:1001F60013C3E43000069FFFE49EFEE42001039D46
:10020600FDE49CFCE4CBF8C201EC700CCFCECDCC67
:10021600E824F8F870F38017C3EF33FFEE33FEEDF2
:1002260033FDEC33FCEB33FB994002FB0FD8E9EBD3
:10023600300105F8D0E0C448B201C0E00AEC4D4EEA
:100246004F78207B0070C2EAB5540040BCC0E01273
:1002560002BBD0F0D0E0200104C4C0E0C4B201C0AB
:10026600F012004AD0F0D5F0EB02009A1204880191
:10027600375301B15801084C01044201B54F01BD85
:0F0286004401BD49011D4301C35501A74601A70E
:100295004501A747036350010C2D01102E01332B97
:1002A500011423013120034C2A00CC480000012B06
:1002B5003F3F3F00790AA2D5200314300509B91044
:1002C500020404B9080104A2D52006025001042045
:1002D50002689202B553005034C0E07F2030031904
:1002E5007F30A20272067205500F120312C202C2BB
:1002F50006C205C2087F30800F300503E9C0E01251
:100305000061300503D0E0F9D0E0B553CC300517D6
:100315007F30B9100C1200617F583004077F788058
:1003250003B908031200613002057F2D0200617FC9
:10033500202008F87F2B2006F322920280CF286E1A
:10034500756C6C2900D2011200263001F8C20178C3
:100355005330D50108F60200CC2D50434958120000
:10036500262403B405004001E490035E9312005275
:0D037500743A120052D2037553040201B114
:1003E600EF4E6012EF60010EEDBB010B89828A832E
:1003F600F0A3DFFCDEFA2289F05007F709DFFCA93B
:0C040600F022BBFEFCF309DFFCA9F02291
:10059A0002070BE493A3F8E493A34003F68001F265
:1005AA0008DFF48029E493A3F85407240CC8C33362
:1005BA00C4540F4420C8834004F456800146F6DF31
:1005CA00E4800B010204081020408090079AE47E20
:1005DA00019360BCA3FF543F30E509541FFEE49326
:1005EA00A360010ECF54C025E060A840B8E493A3ED
:1005FA00FAE493A3F8E493A3C8C582C8CAC583CA18
:10060A00F0A3C8C582C8CAC583CADFE9DEE780BECF
:0107A3000055
:10041200BB010CE58229F582E5833AF583E022509F
:1004220006E92582F8E622BBFE06E92582F8E222E9
:0D043200E58229F582E5833AF583E4932203
:10043F00BB010689828A83F0225002F722BBFE019C
:02044F00F32296
:09045100E6FB08E6FA08E6F922D0
:10045A00FAE6FB0808E6F925F0F618E6CA3AF622A3
:09046A00E0FBA3E0FAA3E0F92293
:09047300E2FB08E2FA08E2F922BA
:0C047C00E493FB740193FA740293F922DC
:10048800D083D082F8E4937012740193700DA3A303
:1004980093F8740193F5828883E473740293686017
:0604A800EFA3A3A380DF17
:1006A100EFB40A07740D1206AC740A309811A899B8
:1006B100B8130CC2983098FDA899C298B811F630B9
:0706C10099FDC299F5992291
:00000001FF
