:0C01A000757365725C6D61696E2E630002
:100189001201AC12017112000E7BFF7A0179A012E3
:07019900012E1201D580FBCD
:0601CE000418000000000F
:07000300758ACD758CF8220F
:0C01AC00438901D28CD2A9D2AF0200031B
:03000B000201539C
:10015300C0E0C0F0C083C082C0D075D008120003D5
:0E0163001200F7D0D0D082D083D0F0D0E0329E
:10000E007590FF7E007F087D007B007A00791002DC
:02001E0000CB15
:1000F700E590F4F510E51065116007E4F512851039
:1001070011220512D3E512940A748094804017E4F3
:10011700F512851113E516F455134214E513F4553A
:070127001652158513162284
:0601D500E513F4F5A02281
:10017100438920758BF4758DF4D28E759850438721
:0801810080D29CD2ACD2AF2267
:030023000201B81F
:0C01B800309803C29832C299751F0032C3
:0A01C4008F99751F01E51F70FC22E2
:10012E008B1C8A1D891EAB1CAA1DA91E1200B26053
:10013E0013051EE51E7002051D14F91200B2FF1202
:05014E0001C480E22263
:03000000020026D5
:0C002600787FE4F6D8FD75811F02006DA4
:1000B200BB010689828A83E0225002E722BBFE024C
:0900C200E32289828A83E493227F
:1000CB00EF4E6012EF60010EEDBB010B89828A834C
:1000DB00F0A3DFFCDEFA2289F05007F709DFFCA959
:0C00EB00F022BBFEFCF309DFFCA9F022B0
:10003200020189E493A3F8E493A34003F68001F25A
:1000420008DFF48029E493A3F85407240CC8C333CF
:10005200C4540F4420C8834004F456800146F6DF9E
:10006200E4800B01020408102040809001CEE47E5F
:10007200019360BCA3FF543F30E509541FFEE49393
:10008200A360010ECF54C025E060A840B8E493A35A
:10009200FAE493A3F8E493A3C8C582C8CAC583CA85
:1000A200F0A3C8C582C8CAC583CADFE9DEE780BE3D
:0101D400002A
:00000001FF
